:100000000C9465000C948D000C948D000C948D0064
:100010000C948D000C948D000C948D000C948D002C
:100020000C948D000C948D000C948D000C94E809B8
:100030000C948D000C948D000C948D000C948D000C
:100040000C94CE120C948D000C9474150C94C21563
:100050000C948D000C948D000C948D000C948D00EC
:100060000C94440C0C948D00000000002400270028
:100070002A0000000000250028002B0000000000DE
:1000800023002600290004040404040404040202DA
:100090000202020203030303030301020408102007
:1000A0004080010204081020010204081020000012
:1000B0000007000201000003040600000000000029
:1000C00000007401E00A700F2E1711241FBECFEF3D
:1000D000D8E0DEBFCDBF11E0A0E0B1E0EAE3F1E39C
:1000E00002C005900D92A03EB107D9F714E0A0EE32
:1000F000B1E001C01D92AC36B107E1F710E0CAECE7
:10010000D0E004C02297FE010E949718C23CD1079C
:10011000C9F70E9484170C949B180C940000FB01F3
:10012000DC014150504048F001900D920020C9F789
:1001300001C01D9241505040E0F70895FC0181E05C
:1001400090E00190061609F4CF010020D1F7019745
:100150000895FB0151915523A9F0BF01DC014D9198
:1001600045174111E1F759F4CD010190002049F004
:100170004D9140154111C9F3FB014111EFCF81E0D1
:1001800090E0019708950F931F93CF93DF93B82FBB
:10019000833008F075C090E00196A82FAA0FAA0F2F
:1001A000AA0F0197A73108F0A6E1482F440F440F8A
:1001B000440F71E050E0C62FD0E001E010E01EC017
:1001C000842F82508231C0F4242F30E0F901E851AD
:1001D000FE4F8081823080F4572BF901EE0FFF1F14
:1001E000EF5FFD4F11821082872F90E08C239D23BB
:1001F000892B11F011830083770F4F5F4A1700F3AB
:10020000BB2361F4852F8C7FF8942BB1982F9095A8
:1002100092238623982B9BB9789432C0B13009F58C
:10022000F89495B1852F8F7380958923962F9F73AE
:100230009523892B85B948B1252F30E0862F90E092
:100240002823392386E0359527958A95E1F752953D
:1002500056955695537050955423522B58B978940F
:100260000FC0852F8F70F89428B1982F990F990F90
:10027000909592238623880F880F982B98B97894AD
:10028000DF91CF911F910F910895482F883018F575
:100290002091E0013091E101672B81F481E090E051
:1002A00002C0880F991F4A95E2F780959095282300
:1002B00039233093E1012093E001089581E090E03B
:1002C00002C0880F991F4A95E2F7282B392B3093EB
:1002D000E1012093E0010895833028F4E82FF0E055
:1002E000EE51FE4F60830895CF93DF93C0E7D2E0D5
:1002F000CE010E946208239682E0C439D807C1F774
:10030000DF91CF9108950F931F93CF93DF938B01CC
:10031000863178F5C82FD0E0FE01E851FE4FE0812C
:10032000E33091F0E43029F582508C30E0F49E0106
:1003300022503040C901880F991F820F931F8059A6
:100340009D4F0E94FA080FC0833051F0853041F074
:10035000863031F0893021F08A3011F08B3019F479
:10036000B8010E94E413CC0FDD1FCF5FDD4F19836E
:100370000883DF91CF911F910F910895AF92BF92A3
:10038000DF92EF92FF920F931F93DF93CF930F9221
:10039000CDB7DEB7D82E7B01082F10E0F801E85169
:1003A000FE4F8081863061F480916D02882341F098
:1003B0006630710529F010926D028FEF8093B801BD
:1003C0009D2D925099839C30B8F4E4E0EE16F10430
:1003D00099F0C80102975C01AA0CBB1CA80EB91EBB
:1003E00080E792E0A80EB91EC5010E94E8088823A4
:1003F00019F0C5010E947C084D2D4E504830B8F4CC
:100400002091E0013091E10192E0E916F10409F058
:10041000E0C081E090E0042E02C0880F991F0A948A
:10042000E2F7282B392B3093E1012093E001E98199
:10043000E23130F5ED2DE695E695E69598012770C9
:100440003070E114F10471F4F0E0E250FE4F81E00D
:1004500090E002C0880F991F2A95E2F72081282B8F
:1004600020830EC0F0E0E250FE4F81E090E002C039
:10047000880F991F2A95E2F7809520818223808337
:10048000F801EE0FFF1FEF5FFD4F11821082F2E0C7
:10049000EF16F104E1F083E0E816F1044CF4E11406
:1004A000F10439F191E0E916F10409F08BC032C092
:1004B000E4E0EE16F10409F45DC0F4E0EF16F10497
:1004C000CCF186E0E816F10409F07CC070C0483039
:1004D00008F08CC09981923140F48D2D60E00E942B
:1004E00044148D2D60E00E94831408511E4F82E059
:1004F00066C0F981F23108F079C08D2D60E00E946C
:1005000044148D2D60E00E94831408511E4FF801A1
:1005100010826CC0F981F23108F068C08D2D60E066
:100520000E9483148D2D61E00E94441408511E4FD7
:1005300081E045C0F3E0DF1681F085E0D81669F070
:1005400096E0D91651F0E9E0DE1639F0FAE0DF1650
:1005500021F08BE0D81609F049C08D2D61E00E9492
:1005600044148D2D60E070E00E94E41308511E4F8A
:1005700083E025C0F981FC30C8F5F801E851FE4F51
:1005800084E08083C80102977C01EE0CFF1CE80E1A
:10059000F91E80E792E0E80EF91EC7010E94E80804
:1005A000882321F5C701B8010E94E1091FC09EEE12
:1005B000D90EE1E0ED15D0F008511E4F86E0F801AC
:1005C000808314C08AE793E060E071E00E94FB0F33
:1005D0000DC081E090E0042E02C0880F991F0A949C
:1005E000E2F780959095282339231DCF0F90CF9166
:1005F000DF911F910F91FF90EF90DF90BF90AF9030
:1006000008951F9380916D02882329F010926D0246
:100610008FEF8093B8011092E2011092FE011092C8
:10062000E5011092E3011092FF011092E601109291
:10063000E401109200021092E70110E0812F8E5029
:10064000883020F4812F62E070E003C0812F61E0E8
:1006500070E00E94BE011F5F163181F71092E10128
:100660001092E0011F9108950F931F930AE713E082
:10067000C80161E171E042E023E00E94F610C80188
:1006800060EE43E851E00E942A0FC80160E943ECA4
:1006900050E00E942A0FC80160EC45E451E00E943E
:1006A0002A0FC80160ED4CE651E00E942A0FC801F4
:1006B00064EF4EEB51E00E942A0FC80160EF4CED51
:1006C00054E00E944E0FC8016FEF41E053E00E94DA
:1006D000480FC80140E051EE60E070E00E946511F3
:1006E0000E9401031F910F9108951F9310E0812F25
:1006F0008251823028F4812F66E070E00E94BE01B2
:100700001F5F1631A1F781E080936D0280E093E0D6
:100710000E94800B1F9108951F93CF93DF93282F82
:10072000162FC82FD0E0FE01E250FE4F8081182323
:10073000442331F4FE01EB51FE4F8081811751F0CB
:100740008AE793E0622F412F50E00E94C50ECB5103
:10075000DE4F1883DF91CF911F9108958091E201C0
:10076000882349F069B18091FE0168236C7F80E0A5
:1007700040E00E948C038091E301882379F083B1EB
:1007800066B16295660F660F607C8F73682B8091EF
:10079000FF01682381E040E00E948C038091E40126
:1007A000882379F086B190E08C7390709595879549
:1007B0009595879560910002682382E040E00E9451
:1007C0008C030895EF92FF920F931F93CF93DF93C3
:1007D000F82EEB01E42E8FEF6F3F780719F4C0E09D
:1007E000D0E014C080E093E06F2D0E94A60A80E064
:1007F00093E06C2F0E94280B80E093E00E946B0B2B
:1008000080916E0290916F020E947D1380E093E0D0
:100810006F2D4E2D0E947C0B0E2D10E080E093E09A
:100820000E94B00A0817190791F4F0924D02C09384
:100830004E02CFE4D2E00C0F1D1F05C080E093E014
:100840000E94B90A8993C017D107C1F712C080E08E
:1008500093E00E94B00A801791072CF48AE793E096
:1008600065E271E004C08AE793E06DE471E00E9404
:10087000FB0F82E0E80E8AE793E067E74E2D2DE458
:1008800032E00E94F70EDF91CF911F910F91FF9000
:10089000EF900895AF92BF92CF92DF92EF92FF92C6
:1008A0000F931F93CF93DF930E94AE0304C08AE798
:1008B00093E00E9447108AE793E00E949E0E892BE6
:1008C000B1F70E94161360932D0270932E0280934D
:1008D0002F0290933002A0903102B0903202C0906B
:1008E0003302D09034022091B6013091B7017901E2
:1008F0000027F7FC0095102F6A197B098C099D09C8
:10090000E616F7060807190708F04BC0EA0CFB1CAF
:100910000C1D1D1DE0923102F09232020093330251
:1009200010933402C8EED1E012EF1830C0F4888181
:100930008230A9F48091E0019091E101012E02C082
:10094000959587950A94E2F780FF09C0812F0E9450
:10095000C213AC018AE793E0612F0E94AA0E1F5FC9
:100960002196183011F78091B80187FD1AC010E068
:100970000EC0F901EE0FFF1FE20FF31FEB5CFD4FFE
:100980006181808170E042810E94E2031F5F212F1C
:1009900030E08091B801992787FD909582179307E1
:1009A00044F7DF91CF911F910F91FF90EF90DF906F
:1009B000CF90BF90AF9008958F929F92AF92BF92C9
:1009C000CF92DF92EF92FF920F931F93DF93CF931B
:1009D00000D000D00F92CDB7DEB7062F6A01803766
:1009E00009F412C1813780F48B3609F494C18C3636
:1009F00020F4893609F054C357C28D3609F4F7C183
:100A00008F3609F04DC360C1863769F0873720F40F
:100A1000843709F045C369C2883709F4DAC08A37D8
:100A200009F03EC335C1DA0111968C9185FF05C0EE
:100A30008AE793E064E771E05DC0FA016081887144
:100A4000883059F1893018F4882341F029C3803166
:100A500009F448C0883109F023C374C080E093E0F2
:100A60000E94A60A12E00EC0F601E10FF11D61819D
:100A70006795662767958081680F80E093E00E9404
:100A8000280B1E5F101780F380E093E00E946B0B31
:100A900086E490E00E947D1303C3DA0113969C91D3
:100AA000139712968C911297063089F4979599278F
:100AB0009795980F15964C9115974795442747950C
:100AC00014968C91480F862F692F70E008C0979577
:100AD00099279795980F862F6FEF7FEF492F0E94E8
:100AE000E203DEC28091B80187303CF08AE793E0F0
:100AF00060EA71E00E94FB0FD3C28F5F8093B80160
:100B0000992787FD9095FC01EE0FFF1FE80FF91F55
:100B1000EB5CFD4F6083DA0113968C9113978795F8
:100B20008827879512969C911297890F8183159635
:100B30008C91159787958827879514969C91890F96
:100B40008283AEC25091B801151634F420E0052F0F
:100B5000112707FD109511C08FEF8093B801A0C237
:100B6000FC01EE0FFF1FE80FF91FEB5CFD4F6083E8
:100B7000662311F0422F24C02F5F822F90E00817C8
:100B8000190774F740E01CC04830C8F4C901019649
:100B9000D901AA0FBB1FA20FB31FAB5CBD4FFC0155
:100BA000EE0FFF1FE80FF91FEB5CFD4F80818C9368
:100BB000808111968C931197828112968C934F5F4E
:100BC000242F30E002171307FCF651505093B80160
:100BD00067C2FA018181682F70E07695762F6627CB
:100BE000779567958081680F711D6115710521F0FA
:100BF00070936F0260936E0280916D02882309F0FA
:100C00004FC20E9475034CC2653008F449C2DA0134
:100C1000BC9011969C9011971296AC9012971396D7
:100C20008C9013971496DC908B2D82508C3008F0AA
:100C300037C2EB2CFF24C70102978C01000F111F54
:100C4000080F191F00591D4FC8010E94E80888238A
:100C500019F0C8010E947C084A2D50E05695542F87
:100C6000442757954795490D511D2D2D30E0369558
:100C7000322F222737952795280D311DC801B7013E
:100C80000E9462098B2D64E070E00E94BE0108C2E0
:100C9000623008F405C2FA01818190E09695982FA0
:100CA0008827979587952081820F911D9093B70192
:100CB0008093B6010A970CF0F3C18AE090E090931C
:100CC000B7018093B601ECC1623008F4E9C1DA01E2
:100CD00011968C911197682F70E00230B9F012963E
:100CE0008C91129790E09695982F882797958795E5
:100CF000682B792B033051F013962C91922F9295FB
:100D0000990F990F907C80E0682B792BF6018081F8
:100D10000E948301C5C186E494E060EF0E94EE1654
:100D200086E494E06CE60E94EE1610E00EEF16C02A
:100D30000231A0F486E494E060E00E94EE1686E4BE
:100D400094E061E00E94EE1686E494E061E00E9487
:100D5000EE1686E494E061E00E94EE16812F8E503C
:100D6000883050F486E494E062E00E94EE1686E457
:100D700094E06AE00E94EE16133051F0153041F015
:100D8000163031F0193021F01A3011F01B3051F4C7
:100D900086E494E063E00E94EE1686E494E068E066
:100DA0000E94EE160C3050F486E494E064E00E9459
:100DB000EE1686E494E06EE00E94EE16812F8251DA
:100DC000823050F486E494E066E00E94EE1686E4F9
:100DD00094E061E00E94EE1686E494E06FE70E94E2
:100DE000EE161F5F0F5F163109F0A2CF78C06623A1
:100DF00009F456C1DA010C9186E494E060EF0E9498
:100E0000EE1686E494E06EE60E94EE1686E494E028
:100E1000602F0E94EE16063108F061C0E02EFF241C
:100E2000F701E851FE4F86E494E060810E94EE16DF
:100E30008701000F111F0F5F1D4FF801608170E0E7
:100E40006F77707086E494E00E94EE16D8016D9181
:100E50007C91CB018078892B59F0660F672F661F34
:100E6000770B70E06F77707086E494E00E94EE1666
:100E7000EE0CFF1CE1E0F2E0EE0EFF1ED7012D911B
:100E80003C91C9018070907C892B49F1330F220B72
:100E9000330F322F221F622F70E06F77707086E45D
:100EA00094E00E94EE161BC086E494E060EF0E947E
:100EB000EE1686E494E06AE60E94EE1602EF1FEF5B
:100EC000083018F06FE770E001C0B80186E494E0E4
:100ED0000E94EE160F5F1F4F0830110589F786E458
:100EE00094E067EF0E94EE16DBC0FA0183818795DC
:100EF0008827879522812F77822B90E0A0E0B0E0B1
:100F0000182F0027FF24EE24858187958827879551
:100F100024812F77822B90E0A0E0B0E0DC019927BC
:100F20008827E80EF91E0A1F1B1F918597959927A0
:100F3000979580858F77982BE90EF11C011D111D67
:100F4000878187958827879526812F77822B90E048
:100F5000A0E0B0E0BA2FA92F982F8827E80EF91E3D
:100F60000A1F1B1F81818130C9F4808161E00E94CA
:100F70004414D6018C9160E00E94831482E090E0DA
:100F80000E947D13F601808161E00E948314C701F5
:100F90000E947D13D6018C9160E014C0F60180811F
:100FA00061E00E94831482E090E00E947D13D601EC
:100FB0008C9160E00E948314C7010E947D13F601AA
:100FC000808161E00E948314D6011B96EC901B97F0
:100FD000E794EE24E7941A968C911A978F77E82A73
:100FE000FF2400E010E01E2D0027FF24EE241D96B4
:100FF0008C911D978795882787951C962C912F7724
:10100000822B90E0A0E0B0E0DC0199278827E80E71
:10101000F91E0A1F1B1FF60191899795992797952D
:1010200080898F77982BE90EF11C011D111D878592
:1010300087958827879526852F77822B90E0A0E0DB
:10104000B0E0BA2FA92F982F8827E80EF91E0A1FA3
:101050001B1F808160E00E944414D6018C91119680
:101060006C91A80197010E94D714F6012081298371
:10107000292F3327442755272A839C0144275527A6
:101080002B83272F382F492F55272C836D838AE7F1
:1010900093E064E745E09E012F5F3F4F0E94F70E0B
:1010A0000F900F900F900F900F90CF91DF911F91A5
:1010B0000F91FF90EF90DF90CF90BF90AF909F90F7
:1010C0008F900895FC01809194028C3090F480837D
:1010D0008F5F80939402815090E0FC01EE0FFF1F20
:1010E000E80FF91FEB56FD4F88EB9BE0928381835D
:1010F00008958FEF80830895DC018C9190E0FC01CE
:10110000EE0FFF1FE80FF91FEB56FD4F80818F7B1D
:1011100080838C916CE00E94251890E0AC01440F14
:10112000551F480F591F440F551F440F551F20E0EE
:1011300030E0C901840F951FFC01EE0FFF1FE80F7F
:10114000F91FEB56FD4F808186FD05C02F5F3F4F95
:101150002C30310571F70895FC0120812C30B8F551
:101160008181992787FD909548E850E0481B590BED
:10117000440F551F440F551F6417750784F0828173
:10118000992787FD909548E552E0481B590B440F7D
:10119000551F440F551F641775070CF4AB014250DF
:1011A0005040CA01AA2797FDA095BA2F880F991F12
:1011B000AA1FBB1F4FB7F89430E0F901EE0FFF1FD5
:1011C000E20FF31FEB56FD4F928381834FBF0895CB
:1011D000FC01808190E0FC01EE0FFF1FE80FF91F7A
:1011E000EB56FD4F8081829586958695817009F03A
:1011F00081E00895AF92BF92CF92DF92EF92FF927B
:101200000F931F93CF93DF93EC019B0182E0603239
:1012100078070CF048C077FF03C020E030E005C03D
:10122000653B710514F024EB30E000D000D0B9012B
:10123000882777FD8095982F2981332727FD3095C2
:10124000E8E8AE2EB12CA21AB30AAA0CBB1CAA0C59
:10125000BB1CCC24B7FCC094DC2CEA81FF27E7FD43
:10126000F09528E532E02E1B3F0B220F331F220F93
:10127000331F442737FD4095542FEDB7FEB7218328
:1012800032834383548320E030E040E050E004EBBD
:10129000E02EF12C012D112D0E94BD179B010F9006
:1012A0000F900F900F90CE01B9010E94AC08DF9112
:1012B000CF911F910F91FF90EF90DF90CF90BF9053
:1012C000AF900895CF92DF92EF92FF921F93CF934A
:1012D000DF93EC01162F7A01690188818C3008F0C8
:1012E00064C0862F61E00E944414888190E0FC0174
:1012F000EE0FFF1FE80FF91FEB56FD4F1F738081A4
:10130000807C812B808380E292E08E199F0964E0CB
:1013100070E00E943118698380E699E08C199D097C
:1013200064E070E00E9431186A83A8818A2F6CE023
:101330000E942518682F70E0AB01440F551F460F1F
:10134000571F440F551F440F551F20E030E0C901BF
:10135000840F951FFC01EE0FFF1FE80FF91FEB56DE
:10136000FD4F808186FD15C02F5F3F4F2C3031052A
:1013700071F724C01092800082E080938100109267
:10138000850010928400B19A80916F0082608093F2
:101390006F008A2F90E0FC01EE0FFF1FE80FF91F8E
:1013A000EB56FD4F8081806480838881DF91CF91EF
:1013B0001F91FF90EF90DF90CF900895672BD1F2AF
:1013C000E8CF40E252E020E639E00E946209089549
:1013D0001F920F920FB60F9211242F933F934F93AA
:1013E0005F936F937F938F939F93AF93BF93EF938D
:1013F000FF938091B90287FF05C01092850010927B
:1014000084002BC02091B902332727FD30958091AD
:10141000940290E02817390704F58091B9029927C2
:1014200087FD9095FC01EE0FFF1FE80FF91FEB56AB
:10143000FD4F808186FF11C08091B902992787FDF9
:101440009095FC01EE0FFF1FE80FF91FEB56FD4FC3
:1014500080818F7360E00E9483148091B9028F5F56
:101460008093B9022091B902332727FD30958091EE
:10147000940290E0281739070CF04EC08091B90211
:101480008C300CF049C0209184003091850080910F
:10149000B902992787FD9095FC01EE0FFF1FE80F19
:1014A000F91FEB56FD4F81819281280F391F309330
:1014B0008900209388008091B902992787FD909533
:1014C000FC01EE0FFF1FE80FF91FEB56FD4F808167
:1014D00086FF2BC08091B902992787FD9095FC016A
:1014E000EE0FFF1FE80FF91FEB56FD4F80818F7342
:1014F00061E00E94831419C080E49CE905C08091DA
:1015000084009091850004969093890080938800D0
:101510008FEF8093B90209C080918400909185007B
:10152000049680549C4940F3EACFFF91EF91BF911C
:10153000AF919F918F917F916F915F914F913F916B
:101540002F910F900FBE0F901F90189581E0809300
:10155000FF026093DC021092FD021092FE020895D9
:101560002091DB0230E08091DA02281B3109C901A9
:1015700008954091DA028091DB02481718F02FEFAE
:101580003FEF0AC0E42FF0E0E654FD4F8081282FA2
:1015900030E04F5F4093DA02C9010895E091DA022A
:1015A0008091DB02E81718F0EFEFFFEF06C0F0E0E4
:1015B000E654FD4F8081E82FF0E0CF0108950895B3
:1015C000109203031092020388EE93E0A0E0B0E0D3
:1015D0008093040390930503A0930603B09307033D
:1015E00084EC91E090930103809300030895CF92DF
:1015F000DF92EF92FF920F931F93CF93DF937C01C3
:101600006B018A018091FF028823A1F0C0E0D0E045
:101610000DC0D701ED91FC91D601AC0FBD1F01901B
:10162000F081E02DC7016C9109952196C017D10773
:1016300080F304C0CB01642F0E94290CC801DF9104
:10164000CF911F910F91FF90EF90DF90CF90089571
:10165000DF93CF930F92CDB7DEB7FC016983809102
:10166000FF028823C9F08091FE02803238F081E0C9
:1016700090E09383828320E030E015C08091FD02EA
:10168000E82FF0E0E352FD4F998190838F5F8093C4
:10169000FD028093FE0205C0CE01019661E00E942A
:1016A000290C21E030E0C9010F90CF91DF9108951E
:1016B0000F93062F8091DC026DED72E04091FE02E7
:1016C00021E00E94D40B1092FD021092FE021092B3
:1016D000FF020F91089561E00E94580B0895413276
:1016E00008F040E2862F6AEB72E00E948B0B1092AA
:1016F000DA028093DB02089521E00E946F0B0895C7
:101700001092DA021092DB021092FD021092FE0299
:101710000E94D50D0895382F413210F040E042C0AC
:1017200080910C038823E1F791E090930C032093C0
:101730000E038FEF8093790310923403415040934E
:1017400035034F5F90930D0380910D03330F832B6F
:1017500080930D0380910F03813041F410920F03A9
:1017600080910D038093BB0085EC01C085EE8093D2
:10177000BC0080910C038130E1F380913403841725
:1017800010F44091340320E030E00AC0FB01E20F86
:10179000F31FD901AC5EBC4F8C9180832F5F3F4F0C
:1017A0002417A0F3842F08950F931F93582F122FFF
:1017B000413210F081E04AC080910C038823E1F7A8
:1017C00082E080930C0300930E038FEF80937903E4
:1017D0001092340340933503A4E1B3E0FB0102C04F
:1017E00081918D938E2F861B8417D0F310920D0359
:1017F00080910D03550F852B80930D0380910F036E
:10180000813041F410920F0380910D038093BB004F
:1018100085EC01C085EE8093BC00112321F08091FE
:101820000C038230E1F3809179038F3F11F480E063
:101830000DC080917903803211F482E007C080915D
:101840007903803311F084E001C083E01F910F9190
:101850000895482F613210F081E0089580910C03C3
:10186000843011F082E0089560935703A6E3B3E05B
:10187000842F9C01F90102C081918D938E2F841BCE
:101880008617D0F380E008951F920F920FB60F9243
:1018900011242F933F934F935F936F937F938F9375
:1018A0009F93AF93BF93EF93FF938091B90090E024
:1018B000887F90708036910509F4F2C081369105D9
:1018C000CCF58832910509F47BC089329105B4F4D6
:1018D0008031910509F46FC0813191053CF4009786
:1018E00009F447C1089709F04FC165C088319105D7
:1018F00009F466C0809709F047C182C08034910521
:1019000009F4A4C08134910544F48033910509F4AD
:1019100082C0C89709F038C189C08035910509F4A3
:1019200089C08835910509F496C08834910509F07D
:101930002BC1AEC08839910509F413C189399105CD
:10194000ECF48837910509F4ABC0893791054CF464
:101950008836910509F4A4C08037910509F014C1B7
:101960009FC08838910509F4FCC08039910509F4BD
:101970009DC08038910509F007C198C0803B910552
:1019800009F4C6C0813B91054CF4803A910509F4F5
:101990009FC0883A910509F0F7C0BAC0803C910514
:1019A00009F4E3C0883C910509F4DFC0883B910548
:1019B00009F0EAC0C2C080910D038093BB00CFC084
:1019C0009091340380913503981768F49091340313
:1019D000E92FF0E0EC5EFC4F80818093BB009F5FBD
:1019E00090933403BCC080910E03882309F44BC04C
:1019F00085ED8093BC008091BC0084FDFCCFC2C00B
:101A000080E28093790385ED8093BC008091BC00D7
:101A100084FDFCCFB7C080E38093790385ED80938C
:101A2000BC008091BC0084FDFCCFACC088E38093F7
:101A300079039BC0809134039091BB00E82FF0E0C4
:101A4000EC5EFC4F90838F5F80933403909134035E
:101A50008091350382C0809134039091BB00E82FC0
:101A6000F0E0EC5EFC4F90838F5F809334038091B5
:101A70000E03882341F085ED8093BC008091BC006B
:101A800084FDFCCF7FC081E080930F0384EA6EC0A9
:101A900085ED8093BC008091BC0084FDFCCF72C0BA
:101AA00083E080930C031092780359C080917803EF
:101AB000803208F056C0809178039091BB00E82FE7
:101AC000F0E0E85AFC4F90838F5F8093780347C023
:101AD00080917803803230F4E0917803F0E0E85AA6
:101AE000FC4F108285ED8093BC008091BC0084FD8A
:101AF000FCCF10920C0360917803E0911203F091F7
:101B0000130388E593E070E00995109278032DC0E7
:101B100084E080930C031092560310925703E091D7
:101B20001003F0911103099580915703882329F43C
:101B300081E0809357031092360390915603E92F6A
:101B4000F0E0EA5CFC4F80818093BB009F5F909344
:101B500056039091560380915703981710F485EC23
:101B600001C085E88093BC000FC085EC8093BC0069
:101B700009C01092790385ED8093BC008091BC0070
:101B800084FDFCCF10920C03FF91EF91BF91AF91B8
:101B90009F918F917F916F915F914F913F912F9185
:101BA0000F900FBE0F901F90189510920C0381E0BC
:101BB00080930E0310920F0382E161E00E94831470
:101BC00083E161E00E948314E9EBF0E080818E7F85
:101BD000808380818D7F808388E48093B80085E452
:101BE0008093BC000895EF92FF920F931F937C01A6
:101BF0008B01DC01ED91FC91A081B1816F772D917A
:101C00003C91CF01F9010995D701ED91FC91A0819B
:101C1000B181000F012F001F110B0F772D913C9107
:101C2000CF01602FF90109951F910F91FF90EF905F
:101C30000895FC010190F081E02DA081B1812D91EA
:101C40003C91CF0160EFF90109950895FC010190E5
:101C5000F081E02DA081B1812D913C91CF0167EF02
:101C6000F901099508950F931F938C01DC01ED9103
:101C7000FC91A081B1812D913C91CF0169EFF901D7
:101C80000995D801ED91FC91A081B1812D913C91F4
:101C9000CF0162E0F9010995D801ED91FC91A08195
:101CA000B1812D913C91CF0163E0F90109951F911C
:101CB0000F9108951F93CF93DF93EC018A818823BE
:101CC000C9F1CE010E94190EE881F981A081B1818C
:101CD0002D913C91CF0169E7F9010995E881F981DE
:101CE000A081B1812B813C814D915C91CF01F901A3
:101CF0006081FA010995E881F981A081B1812B8188
:101D00003C814D915C91CF01F9016181FA01099506
:101D100012E00AC0EB81FC81E10FF11D6081CE0170
:101D200070E00E94F30D1F5F8A81181798F3CE01AF
:101D30000E94260EDF91CF911F910895FC01A08192
:101D4000B181ED91FC9111970480F581E02DCD01D9
:101D500009950895EF92FF920F931F938C017A01DA
:101D6000DC01ED91FC91A081B1816F70606E2D91CD
:101D70003C91CF01F9010995C801B7010E94F30D0B
:101D80001F910F91FF90EF900895EF92FF920F93A4
:101D90001F937C018A01DC01ED91FC91A081B1814E
:101DA0006F7060692D913C91CF01F9010995D701C0
:101DB000ED91FC91A081B181602F6F772D913C91C5
:101DC000CF01F9010995D701ED91FC91A081B18175
:101DD000000F012F001F110B2D913C91CF01602F9F
:101DE000F90109951F910F91FF90EF900895DF92EF
:101DF000EF92FF920F931F93CF93DF93EC01162F77
:101E0000D42E022FF32E0E94190EE881F981A081B1
:101E1000B1812D913C91CF01612FF9010995202FBE
:101E20003F2DC9017C0110E008C0F70161917F01DD
:101E3000CE0170E00E94F30D1F5F1D15B0F3CE01BF
:101E40000E94260EDF91CF911F910F91FF90EF908E
:101E5000DF900895FC01603DA9F0613D28F46039F0
:101E600059F0603CA1F40BC0603E19F0643F79F476
:101E70000CC054A743A7089556A745A7089550AB93
:101E800047A7089552AB41AB089554AB43AB0895B7
:101E9000FC016F3F11F456AB45AB0895FC0152AF06
:101EA00041AF0895FC01158216821782DC0180E0A3
:101EB00018961C9218978F5F11968032C9F710A65A
:101EC00012A611A605A8F6A9E02D309709F00995EC
:101ED0000895FC017183608312820E94520F08955D
:101EE0008AE793E066E474E00E94690F08954F92D8
:101EF0005F926F927F928F929F92AF92BF92CF929A
:101F0000DF92EF92FF920F93DF93CF9300D0CDB784
:101F1000DEB72B017A013A8329838DE061E00E94CC
:101F2000441400E089819A813C01882477FC8094E4
:101F3000982C5701CC24B7FCC094DC2C11C0C401F0
:101F4000B3010E9424138DE061E00E948314C60156
:101F5000B5010E9424138DE060E00E9483140F5F9E
:101F6000802F90E08415950554F30F900F90CF913A
:101F7000DF910F91FF90EF90DF90CF90BF90AF90E7
:101F80009F908F907F906F905F904F9008950F93E8
:101F90001F938C018DE061E00E944414C80162E04F
:101FA00070E048E250E022ED30E00E94770F6AEFE7
:101FB00070E080E090E00E942413C80163E070E0CC
:101FC00048E250E022ED30E00E94770F6DE770E0CC
:101FD00080E090E00E9424131F910F9108959A01D0
:101FE000FA0101900020E9F73197E41BF50B4E2F21
:101FF0000E94F70E0895AB0161E70E94EF0F08956C
:102000001F93CF93DF93EC018885813731F08937B7
:1020100089F5CE010E945A0E36C08FA998AD892B42
:1020200091F189A59AA5019762E070E00E943118AC
:10203000162F862F90E00E949911AC01DC0121E05F
:1020400030E011C0FE01E20FF11D90859C932F5FDF
:10205000FE01E20FF11D8085879588278795890FFE
:102060008D932F5F3F5F311768F3EFA9F8ADCA0179
:10207000099509C0E9ADFAAD309729F069A561501D
:102080002996AE010995DF91CF911F910895CF93C5
:10209000DF93EC01A881B981ED91FC911197068045
:1020A000F781E02DCD010995AC0188A5882391F039
:1020B000473F510529F418A6CE010E94001093C095
:1020C00089A59AA5FE01E80FF91F408701969AA7F6
:1020D00089A789C08D81882309F446C040385105FD
:1020E0000CF042C081508D83FE01E80FF11D408746
:1020F000882309F078C08E81882309F474C0803D5C
:1021000049F1813D28F4803959F0803C59F51FC0D0
:10211000803E19F0843F31F513C0EBA5FCA502C049
:10212000EDA5FEA53097F1F0688570E07695762FE5
:102130006627779567958985680F711D8F8111C016
:10214000EBA9FCA9309771F06885898509C0EFA5D6
:10215000F8A902C0E9A9FAA9309721F068858F8112
:1021600070E009951E823FC0403F510514F09A016E
:1021700006C09A01207F3070842F8F708F83203E9D
:102180003105F1F0213E310554F4203C3105D1F008
:10219000203D3105B9F02039310529F511C0243F22
:1021A000310571F0253F310524F4203F3105D9F484
:1021B0000DC0293F310599F02F3F3105A1F40BC027
:1021C00082E001C081E08D832E830DC081E088A76D
:1021D0001AA619A608C0CE010E94520F04C08AE7B1
:1021E00093E00E94330EDF91CF910895AF92BF929A
:1021F000CF92DF92EF92FF920F931F93CF93DF93D3
:102200008C01D62EC72EB42EA22E862F972F61EBCF
:1022100071E00E94A900EC018D2D9C2D6FE270E011
:102220000E949E00209779F07C010894E11CF11C2B
:10223000E114F10441F09E012E5F822F8E19D80126
:1022400012968C930FC0AD2DBC2DFD010190002086
:10225000E9F7ED19EF5FD8011296EC932D2D3C2D87
:10226000C9017C01F801828190E00E949911FC0172
:10227000D80114969C938E93139712968C91129773
:10228000E80FF11D10821396ED91FC911497B08226
:102290001396ED91FC911497A18213968D919C91C8
:1022A000149712964C9150E0425050400296B7015C
:1022B0000E948F00DF91CF911F910F91FF90EF90BF
:1022C000DF90CF90BF90AF9008950F931F938C0134
:1022D00086E494E00E94FD15D801ED91FC91809177
:1022E0004804909149049383828380914A04909199
:1022F0004B04A0914C04B0914D0484839583A68334
:10230000B78380914E0490914F04A0915004B091F6
:10231000510480879187A287B387C8010E94C70FA5
:10232000C8010E94330EC8010E945A0E1F910F91DE
:1023300008950F931F93CF93DF93BC0182309105D3
:1023400010F462E070E0E0916A04F0916B04A0E0A8
:10235000B0E040E050E024C080819181861797076B
:10236000D0F08617970771F482819381109729F036
:1023700013969C938E9312972CC090936B0480932A
:102380006A0427C04115510519F08417950718F400
:10239000EF018D01AC01DF01828193819C01F90184
:1023A0003097D1F641155105F9F0CA01861B970BFC
:1023B0008430910580F48A819B810115110521F0FB
:1023C000F8019383828304C090936B0480936A0422
:1023D000FE01329645C0FE01E80FF91F619371932B
:1023E0000297998388833CC0809168049091690426
:1023F000892B41F48091BB019091BC0190936904B9
:10240000809368044091BD015091BE014115510572
:1024100041F44DB75EB78091B9019091BA01481B64
:10242000590B209168043091690424173507B0F4E2
:10243000CA01821B930B8617970780F0AB014E5F92
:102440005F4F8417950750F0420F531F5093690454
:1024500040936804F9016193719302C0E0E0F0E0F9
:10246000CF01DF91CF911F910F910895CF93DF930B
:102470009C01009709F48FC0EC0122971B821A82FD
:1024800060916A0470916B046115710581F4888113
:102490009981820F931F2091680430916904281755
:1024A000390739F5D0936904C093680474C0DB011F
:1024B00040E050E0AC17BD0708F1BB83AA83FE01E2
:1024C00021913191E20FF31FAE17BF0779F48D917F
:1024D0009C911197280F391F2E5F3F4F3983288316
:1024E00012968D919C9113979B838A834115510578
:1024F00071F4D0936B04C0936A044DC012968D9111
:102500009C911397AD01009711F0DC01D3CFDA0154
:102510001396DC93CE931297FA0121913191E20F39
:10252000F31FCE17DF0769F488819981280F391FBF
:102530002E5F3F4FFA01318320838A819B819383F1
:102540008283E0E0F0E0DB0112968D919C9113977D
:10255000009719F0BC01FD01F6CFAB014E5F5F4F54
:10256000DB018D919C91840F951F2091680430911F
:1025700069042817390779F4309729F410926B040D
:1025800010926A0402C0138212824250504050934B
:10259000690440936804DF91CF9108951F920F92D0
:1025A0000FB60F9211242F933F938F939F93AF9366
:1025B000BF938091B9039091BA03A091BB03B091EE
:1025C000BC033091BD030196A11DB11D232F2D5FCA
:1025D0002D3720F02D570196A11DB11D2093BD036D
:1025E0008093B9039093BA03A093BB03B093BC0349
:1025F0008091B5039091B603A091B703B091B80351
:102600000196A11DB11D8093B5039093B603A093CD
:10261000B703B093B803BF91AF919F918F913F9152
:102620002F910F900FBE0F901F9018958FB7F894B1
:102630002091B9033091BA034091BB035091BC0380
:102640008FBFB901CA0108959B01AC017FB7F8940F
:102650008091B5039091B603A091B703B091B803F0
:1026600066B5A89B05C06F3F19F00196A11DB11D6D
:102670007FBFBA2FA92F982F8827860F911DA11DE4
:10268000B11D62E0880F991FAA1FBB1F6A95D1F781
:10269000BC012DC0FFB7F8948091B5039091B603AB
:1026A000A091B703B091B803E6B5A89B05C0EF3F72
:1026B00019F00196A11DB11DFFBFBA2FA92F982FA8
:1026C00088278E0F911DA11DB11DE2E0880F991F73
:1026D000AA1FBB1FEA95D1F7861B970B885E934014
:1026E000C8F2215030404040504068517C4F211585
:1026F00031054105510571F60895019739F0880FAC
:10270000991F880F991F02970197F1F70895789400
:1027100084B5826084BD84B5816084BD85B58260E6
:1027200085BD85B5816085BDEEE6F0E08081816084
:102730008083E1E8F0E01082808182608083808184
:1027400081608083E0E8F0E0808181608083E1EB5C
:10275000F0E0808184608083E0EBF0E08081816044
:102760008083EAE7F0E080818460808380818260FA
:1027700080838081816080838081806880831092E3
:10278000C1000895982F8E3008F09E509770809168
:10279000BF018295880F880F807C892B80937C00F5
:1027A00080917A00806480937A0080917A0086FD1F
:1027B000FCCF2091780040917900942F80E030E0A8
:1027C000282B392BC90108951F93CF93DF93182F1E
:1027D000EB0161E00E944414209709F44AC0CF3F06
:1027E000D10509F449C0E12FF0E0E255FF4F849193
:1027F0008330C1F0843028F4813051F08230B1F55B
:102800000CC0863019F1873049F1843079F514C055
:1028100084B5806884BDC7BD33C084B5806284BD83
:10282000C8BD2EC080918000806880938000D093C6
:102830008900C093880024C08091800080628093CA
:102840008000D0938B00C0938A001AC08091B000A2
:1028500080688093B000C093B30012C08091B00034
:1028600080628093B000C093B4000AC0C038D10524
:102870001CF4812F60E002C0812F61E00E9483146C
:10288000DF91CF911F910895CF93DF93482F50E0B0
:10289000CA0186569F4FFC0134914A575F4FFA0197
:1028A0008491882369F190E0880F991FFC01E85911
:1028B000FF4FA591B491FC01EE58FF4FC591D49103
:1028C000662351F42FB7F8948C91932F9095892318
:1028D0008C93888189230BC0623061F42FB7F89400
:1028E0008C91932F909589238C938881832B888357
:1028F0002FBF06C09FB7F8948C91832B8C939FBFFA
:10290000DF91CF910895482F50E0CA0182559F4F23
:10291000FC012491CA0186569F4FFC0194914A57AD
:102920005F4FFA013491332309F440C0222351F15F
:10293000233071F0243028F42130A1F0223011F539
:1029400014C02630B1F02730C1F02430D9F404C0CF
:10295000809180008F7703C0809180008F7D80936D
:10296000800010C084B58F7702C084B58F7D84BD90
:1029700009C08091B0008F7703C08091B0008F7D37
:102980008093B000E32FF0E0EE0FFF1FEE58FF4FF3
:10299000A591B4912FB7F894662321F48C9190956A
:1029A000892302C08C91892B8C932FBF08958F921D
:1029B0009F92AF92BF92CF92DF92EF92FF920F93CE
:1029C0001F93CF93DF93A82FB0E0CD0186569F4F82
:1029D000FC018490AA57BF4FFD018491662311F436
:1029E000992401C0982C6FEFA62E6FEFB62E6FEFD3
:1029F000C62E6FE0D62EA222B322C422D522682F83
:102A000070E0660F771F64587F4FEE24FF24870124
:102A1000FB01A591B4910BC0EA14FB040C051D0544
:102A200009F44EC00894E11CF11C011D111D8C918C
:102A30008821891589F30CC0EA14FB040C051D05D7
:102A400009F43EC00894E11CF11C011D111D03C0D6
:102A5000FB01A591B4918C918821891569F720E03B
:102A600030E040E050E0FB01C591D4910FC0DA01A5
:102A7000C9018E0D9F1DA01FB11F8A159B05AC05B6
:102A8000BD05F1F02F5F3F4F4F4F5F4F8881882189
:102A9000891569F3CA01B90125E130E040E050E051
:102AA0000E9406189B01AC01205F3F4F4F4F5F4FC4
:102AB00084E056954795379527958A95D1F704C0B8
:102AC00020E030E040E050E0B901CA01DF91CF9151
:102AD0001F910F91FF90EF90DF90CF90BF90AF903C
:102AE0009F908F90089508951F920F920FB60F92A6
:102AF00011242F933F934F938F939F93EF93FF93C3
:102B00008091C00082FD1DC04091C6002091FE034F
:102B10003091FF032F5F3F4F2F733070809100047F
:102B2000909101042817390771F0E091FE03F091AC
:102B3000FF03E254FC4F40833093FF032093FE03D6
:102B400002C08091C600FF91EF919F918F914F91AC
:102B50003F912F910F900FBE0F901F901895E0910D
:102B60005204F0915304E05CFF4F819191912081D8
:102B70003181821B930B8F739070892B11F00E940F
:102B8000731508951F920F920FB60F9211242F9371
:102B90003F938F939F93EF93FF9320914204309143
:102BA000430480914404909145042817390731F477
:102BB0008091C1008F7D8093C10014C0E0914404D6
:102BC000F0914504EE5FFB4F208180914404909189
:102BD000450401968F73907090934504809344044C
:102BE0002093C600FF91EF919F918F913F912F917C
:102BF0000F900FBE0F901F901895AF92BF92DF926B
:102C0000EF92FF920F931F93CF93DF93EC017A0122
:102C10008B01DD24403081EE580780E0680780E0BA
:102C2000780711F0DD24D39491E0A92EB12CEC8922
:102C3000FD89DD2069F0C50108A002C0880F991F39
:102C40000A94E2F7808360E079E08DE390E005C0CC
:102C5000108260E874E88EE190E0A80197010E947C
:102C60004418215030404040504056954795379584
:102C7000279580E12030380720F0DD2011F0DD2499
:102C8000D6CFE889F9893083EA89FB89208319A2A4
:102C9000EE89FF89408121E030E0C9010C8C02C03F
:102CA000880F991F0A94E2F7482B4083EE89FF8929
:102CB0004081C9010D8C02C0880F991F0A94E2F768
:102CC000482B4083EE89FF894081C9010E8C02C0E8
:102CD000880F991F0A94E2F7482B4083EE89FF89F9
:102CE00080810F8C02C0220F331F0A94E2F72095D7
:102CF00028232083DF91CF911F910F91FF90EF90B8
:102D0000DF90BF90AF900895DC011C96ED91FC918F
:102D10001D97E05CFF4F2191319180819181281BAB
:102D2000390B2F733070C9010895DC011C96ED91A9
:102D3000FC911D97E05CFF4F20813181E054F04011
:102D4000DF01AE5BBF4F8D919C911197281739071A
:102D500019F42FEF3FEF07C08D919C91E80FF91FF9
:102D60008081282F30E0C9010895DC011C96ED9187
:102D7000FC911D97E05CFF4F20813181E054F040D1
:102D8000DF01AE5BBF4F8D919C91119728173907DA
:102D900019F42FEF3FEF10C08D919C911197E80F20
:102DA000F91F20818D919C91119701968F739070DE
:102DB00011969C938E9330E0C9010895DC019196A1
:102DC0008C919197882339F05496ED91FC91559709
:102DD000808186FFF9CF91961C920895CF93DF935F
:102DE000EC01EE85FF85E05CFF4F20813181E054EE
:102DF000F0402F5F3F4F2F733070DF01AE5BBF4F4E
:102E00008D919C91119728173907D1F3E05CFF4F02
:102E100080819181E054F040E80FF91F6083EE85D6
:102E2000FF85E05CFF4F31832083EE89FF8920819D
:102E300081E090E00F8C02C0880F991F0A94E2F79E
:102E4000282B208381E089A3EC89FD89808180641F
:102E5000808381E090E0DF91CF9108951092490442
:102E60001092480488EE93E0A0E0B0E080934A041A
:102E700090934B04A0934C04B0934D0484ED91E0E7
:102E800090934704809346048EEB93E09093530411
:102E90008093520482E094E090935504809354040C
:102EA00085EC90E0909357048093560484EC90E076
:102EB000909359048093580480EC90E090935B04C5
:102EC00080935A0481EC90E090935D0480935C04BD
:102ED00082EC90E090935F0480935E0486EC90E037
:102EE000909361048093600484E08093620483E0A3
:102EF0008093630487E08093640485E08093650495
:102F000081E0809366040895CF93DF930E94871336
:102F10000E943403CFEAD5E10E944A042097E1F3EE
:102F20000E94AF15F9CFCF92DF92EF92FF920F93ED
:102F30001F93CF93DF937C016B018A01C0E0D0E047
:102F40000FC0D6016D916D01D701ED91FC910190FB
:102F5000F081E02DC7010995C80FD91F015010401D
:102F60000115110571F7CE01DF91CF911F910F91DE
:102F7000FF90EF90DF90CF9008952F923F924F9265
:102F80005F926F927F928F929F92AF92BF92CF92F9
:102F9000DF92EF92FF920F931F93DF93CF93CDB702
:102FA000DEB73B014C0119012A016D897E898F89A9
:102FB000988D6A197B098C099D09621A730A840A23
:102FC000950AA40193010E940618E218F308040967
:102FD0001509A80197010E9466182A0D3B1D4C1D7A
:102FE0005D1DB901CA01CF91DF911F910F91FF9033
:102FF000EF90DF90CF90BF90AF909F908F907F9099
:103000006F905F904F903F902F900895629FD001F6
:10301000739FF001829FE00DF11D649FE00DF11D93
:10302000929FF00D839FF00D749FF00D659FF00D42
:103030009927729FB00DE11DF91F639FB00DE11D2F
:10304000F91FBD01CF0111240895991B79E004C037
:10305000991F961708F0961B881F7A95C9F78095D7
:10306000089597FB092E07260AD077FD04D049D092
:1030700006D000201AF4709561957F4F0895F6F7F9
:10308000909581959F4F0895A1E21A2EAA1BBB1B14
:10309000FD010DC0AA1FBB1FEE1FFF1FA217B30724
:1030A000E407F50720F0A21BB30BE40BF50B661F3A
:1030B000771F881F991F1A9469F7609570958095FE
:1030C00090959B01AC01BD01CF01089597FB092E9E
:1030D00005260ED057FD04D0D7DF0AD0001C38F4E7
:1030E00050954095309521953F4F4F4F5F4F089534
:1030F000F6F790958095709561957F4F8F4F9F4F14
:103100000895AA1BBB1B51E107C0AA1FBB1FA6172E
:10311000B70710F0A61BB70B881F991F5A95A9F780
:1031200080959095BC01CD010895EE0FFF1F05908D
:0A313000F491E02D0994F894FFCF0C
:10313A00556E6B6E6F776E2070696E206D6F646569
:10314A00005374616E646172644669726D61746180
:10315A002E696E6F004932432052656164204572C0
:10316A00726F723A20546F6F206D616E79206279A6
:10317A0074657320726563656976656400493243D4
:10318A002052656164204572726F723A20546F6FE3
:10319A002066657720627974657320726563656954
:1031AA007665640031302D626974206164647265E9
:1031BA007373696E67206D6F6465206973206E6F23
:1031CA00742079657420737570706F727465640009
:1031DA00746F6F206D616E792071756572696573A0
:1031EA00002E637070001300FF80006C0400000161
:1031FA0000000000280BF70AB00AB90ACE0ADF0A53
:10320A0000000000EE1693178416B5169516DE1602
:00000001FF
